{
  "contractName": "TIMEDividend",
  "abi": [
    {
      "inputs": [
        {
          "internalType": "uint256",
          "name": "supply",
          "type": "uint256"
        }
      ],
      "stateMutability": "nonpayable",
      "type": "constructor"
    },
    {
      "inputs": [
        {
          "internalType": "address",
          "name": "owner",
          "type": "address"
        }
      ],
      "name": "HasAdmin",
      "type": "error"
    },
    {
      "inputs": [],
      "name": "OutOfBounds",
      "type": "error"
    },
    {
      "inputs": [],
      "name": "SupplyMissing",
      "type": "error"
    },
    {
      "anonymous": false,
      "inputs": [
        {
          "indexed": true,
          "internalType": "address",
          "name": "owner",
          "type": "address"
        },
        {
          "indexed": true,
          "internalType": "address",
          "name": "spender",
          "type": "address"
        },
        {
          "indexed": false,
          "internalType": "uint256",
          "name": "value",
          "type": "uint256"
        }
      ],
      "name": "Approval",
      "type": "event"
    },
    {
      "anonymous": false,
      "inputs": [
        {
          "indexed": true,
          "internalType": "address",
          "name": "account",
          "type": "address"
        },
        {
          "indexed": true,
          "internalType": "address",
          "name": "recipient",
          "type": "address"
        },
        {
          "indexed": false,
          "internalType": "uint256",
          "name": "amount",
          "type": "uint256"
        }
      ],
      "name": "ClaimDividend",
      "type": "event"
    },
    {
      "anonymous": false,
      "inputs": [
        {
          "indexed": true,
          "internalType": "address",
          "name": "from",
          "type": "address"
        },
        {
          "indexed": false,
          "internalType": "uint256",
          "name": "weiAmount",
          "type": "uint256"
        }
      ],
      "name": "DistributeDividend",
      "type": "event"
    },
    {
      "anonymous": false,
      "inputs": [
        {
          "indexed": true,
          "internalType": "address",
          "name": "previousOwner",
          "type": "address"
        },
        {
          "indexed": true,
          "internalType": "address",
          "name": "newOwner",
          "type": "address"
        }
      ],
      "name": "OwnershipTransferred",
      "type": "event"
    },
    {
      "anonymous": false,
      "inputs": [
        {
          "indexed": true,
          "internalType": "address",
          "name": "from",
          "type": "address"
        },
        {
          "indexed": true,
          "internalType": "address",
          "name": "to",
          "type": "address"
        },
        {
          "indexed": false,
          "internalType": "uint256",
          "name": "value",
          "type": "uint256"
        }
      ],
      "name": "Transfer",
      "type": "event"
    },
    {
      "inputs": [
        {
          "internalType": "address",
          "name": "owner",
          "type": "address"
        },
        {
          "internalType": "address",
          "name": "spender",
          "type": "address"
        }
      ],
      "name": "allowance",
      "outputs": [
        {
          "internalType": "uint256",
          "name": "",
          "type": "uint256"
        }
      ],
      "stateMutability": "view",
      "type": "function",
      "constant": true
    },
    {
      "inputs": [
        {
          "internalType": "address",
          "name": "spender",
          "type": "address"
        },
        {
          "internalType": "uint256",
          "name": "amount",
          "type": "uint256"
        }
      ],
      "name": "approve",
      "outputs": [
        {
          "internalType": "bool",
          "name": "",
          "type": "bool"
        }
      ],
      "stateMutability": "nonpayable",
      "type": "function"
    },
    {
      "inputs": [
        {
          "internalType": "address",
          "name": "account",
          "type": "address"
        }
      ],
      "name": "balanceOf",
      "outputs": [
        {
          "internalType": "uint256",
          "name": "",
          "type": "uint256"
        }
      ],
      "stateMutability": "view",
      "type": "function",
      "constant": true
    },
    {
      "inputs": [
        {
          "internalType": "uint256",
          "name": "amount",
          "type": "uint256"
        }
      ],
      "name": "burn",
      "outputs": [],
      "stateMutability": "nonpayable",
      "type": "function"
    },
    {
      "inputs": [
        {
          "internalType": "address",
          "name": "account",
          "type": "address"
        },
        {
          "internalType": "uint256",
          "name": "amount",
          "type": "uint256"
        }
      ],
      "name": "burnFrom",
      "outputs": [],
      "stateMutability": "nonpayable",
      "type": "function"
    },
    {
      "inputs": [
        {
          "internalType": "uint256",
          "name": "amount",
          "type": "uint256"
        },
        {
          "internalType": "uint256",
          "name": "max",
          "type": "uint256"
        }
      ],
      "name": "clamp",
      "outputs": [
        {
          "internalType": "uint256",
          "name": "",
          "type": "uint256"
        }
      ],
      "stateMutability": "pure",
      "type": "function",
      "constant": true
    },
    {
      "inputs": [
        {
          "internalType": "address",
          "name": "",
          "type": "address"
        }
      ],
      "name": "cumulativeDividendClaimed",
      "outputs": [
        {
          "internalType": "uint256",
          "name": "",
          "type": "uint256"
        }
      ],
      "stateMutability": "view",
      "type": "function",
      "constant": true
    },
    {
      "inputs": [],
      "name": "decimals",
      "outputs": [
        {
          "internalType": "uint8",
          "name": "",
          "type": "uint8"
        }
      ],
      "stateMutability": "view",
      "type": "function",
      "constant": true
    },
    {
      "inputs": [
        {
          "internalType": "address",
          "name": "spender",
          "type": "address"
        },
        {
          "internalType": "uint256",
          "name": "subtractedValue",
          "type": "uint256"
        }
      ],
      "name": "decreaseAllowance",
      "outputs": [
        {
          "internalType": "bool",
          "name": "",
          "type": "bool"
        }
      ],
      "stateMutability": "nonpayable",
      "type": "function"
    },
    {
      "inputs": [
        {
          "internalType": "address",
          "name": "spender",
          "type": "address"
        },
        {
          "internalType": "uint256",
          "name": "addedValue",
          "type": "uint256"
        }
      ],
      "name": "increaseAllowance",
      "outputs": [
        {
          "internalType": "bool",
          "name": "",
          "type": "bool"
        }
      ],
      "stateMutability": "nonpayable",
      "type": "function"
    },
    {
      "inputs": [
        {
          "internalType": "address",
          "name": "",
          "type": "address"
        }
      ],
      "name": "magnifiedDividendCorrections",
      "outputs": [
        {
          "internalType": "int256",
          "name": "",
          "type": "int256"
        }
      ],
      "stateMutability": "view",
      "type": "function",
      "constant": true
    },
    {
      "inputs": [],
      "name": "magnifiedDividendPerShare",
      "outputs": [
        {
          "internalType": "uint256",
          "name": "",
          "type": "uint256"
        }
      ],
      "stateMutability": "view",
      "type": "function",
      "constant": true
    },
    {
      "inputs": [],
      "name": "magnitude",
      "outputs": [
        {
          "internalType": "uint256",
          "name": "",
          "type": "uint256"
        }
      ],
      "stateMutability": "view",
      "type": "function",
      "constant": true
    },
    {
      "inputs": [
        {
          "internalType": "bytes[]",
          "name": "data",
          "type": "bytes[]"
        }
      ],
      "name": "multicall",
      "outputs": [
        {
          "internalType": "bytes[]",
          "name": "results",
          "type": "bytes[]"
        }
      ],
      "stateMutability": "nonpayable",
      "type": "function"
    },
    {
      "inputs": [],
      "name": "name",
      "outputs": [
        {
          "internalType": "string",
          "name": "",
          "type": "string"
        }
      ],
      "stateMutability": "view",
      "type": "function",
      "constant": true
    },
    {
      "inputs": [],
      "name": "owner",
      "outputs": [
        {
          "internalType": "address",
          "name": "",
          "type": "address"
        }
      ],
      "stateMutability": "view",
      "type": "function",
      "constant": true
    },
    {
      "inputs": [],
      "name": "renounceOwnership",
      "outputs": [],
      "stateMutability": "nonpayable",
      "type": "function"
    },
    {
      "inputs": [],
      "name": "symbol",
      "outputs": [
        {
          "internalType": "string",
          "name": "",
          "type": "string"
        }
      ],
      "stateMutability": "view",
      "type": "function",
      "constant": true
    },
    {
      "inputs": [],
      "name": "totalSupply",
      "outputs": [
        {
          "internalType": "uint256",
          "name": "",
          "type": "uint256"
        }
      ],
      "stateMutability": "view",
      "type": "function",
      "constant": true
    },
    {
      "inputs": [
        {
          "internalType": "address",
          "name": "to",
          "type": "address"
        },
        {
          "internalType": "uint256",
          "name": "amount",
          "type": "uint256"
        }
      ],
      "name": "transfer",
      "outputs": [
        {
          "internalType": "bool",
          "name": "",
          "type": "bool"
        }
      ],
      "stateMutability": "nonpayable",
      "type": "function"
    },
    {
      "inputs": [
        {
          "internalType": "address",
          "name": "from",
          "type": "address"
        },
        {
          "internalType": "address",
          "name": "to",
          "type": "address"
        },
        {
          "internalType": "uint256",
          "name": "amount",
          "type": "uint256"
        }
      ],
      "name": "transferFrom",
      "outputs": [
        {
          "internalType": "bool",
          "name": "",
          "type": "bool"
        }
      ],
      "stateMutability": "nonpayable",
      "type": "function"
    },
    {
      "inputs": [
        {
          "internalType": "address",
          "name": "newOwner",
          "type": "address"
        }
      ],
      "name": "transferOwnership",
      "outputs": [],
      "stateMutability": "nonpayable",
      "type": "function"
    },
    {
      "stateMutability": "payable",
      "type": "receive",
      "payable": true
    },
    {
      "inputs": [
        {
          "internalType": "address",
          "name": "account",
          "type": "address"
        }
      ],
      "name": "claimableDividendOf",
      "outputs": [
        {
          "internalType": "uint256",
          "name": "",
          "type": "uint256"
        }
      ],
      "stateMutability": "view",
      "type": "function",
      "constant": true
    },
    {
      "inputs": [
        {
          "internalType": "address",
          "name": "account",
          "type": "address"
        }
      ],
      "name": "accumulativeDividendOf",
      "outputs": [
        {
          "internalType": "uint256",
          "name": "",
          "type": "uint256"
        },
        {
          "internalType": "uint256",
          "name": "",
          "type": "uint256"
        }
      ],
      "stateMutability": "view",
      "type": "function",
      "constant": true
    },
    {
      "inputs": [
        {
          "internalType": "uint256",
          "name": "magDividendPerShare",
          "type": "uint256"
        },
        {
          "internalType": "uint256",
          "name": "balance",
          "type": "uint256"
        },
        {
          "internalType": "int256",
          "name": "correction",
          "type": "int256"
        }
      ],
      "name": "dividendFrom",
      "outputs": [
        {
          "internalType": "uint256",
          "name": "claimableDividend",
          "type": "uint256"
        },
        {
          "internalType": "uint256",
          "name": "productRemainder",
          "type": "uint256"
        }
      ],
      "stateMutability": "pure",
      "type": "function",
      "constant": true
    },
    {
      "inputs": [
        {
          "internalType": "address payable",
          "name": "recipient",
          "type": "address"
        },
        {
          "internalType": "uint256",
          "name": "amount",
          "type": "uint256"
        }
      ],
      "name": "claimDividend",
      "outputs": [
        {
          "internalType": "uint256",
          "name": "",
          "type": "uint256"
        }
      ],
      "stateMutability": "nonpayable",
      "type": "function"
    }
  ],
  "bytecode": "0x60806040523480156200001157600080fd5b50604051620039ef380380620039ef83398181016040528101906200003791906200053b565b6040518060400160405280601181526020017f542e492e4d2e452e204469766964656e640000000000000000000000000000008152506040518060400160405280600481526020017f54494d4500000000000000000000000000000000000000000000000000000000815250620000c3620000b76200011160201b60201c565b6200011960201b60201c565b8160049081620000d49190620007dd565b508060059081620000e69190620007dd565b5050506200010a620000fd6200011160201b60201c565b82620001dd60201b60201c565b5062000ac9565b600033905090565b60008060009054906101000a900473ffffffffffffffffffffffffffffffffffffffff169050816000806101000a81548173ffffffffffffffffffffffffffffffffffffffff021916908373ffffffffffffffffffffffffffffffffffffffff1602179055508173ffffffffffffffffffffffffffffffffffffffff168173ffffffffffffffffffffffffffffffffffffffff167f8be0079c531659141344cd1fd0a4f28419497f9722a3daafe3b4186f6b6457e060405160405180910390a35050565b600073ffffffffffffffffffffffffffffffffffffffff168273ffffffffffffffffffffffffffffffffffffffff16036200024f576040517f08c379a0000000000000000000000000000000000000000000000000000000008152600401620002469062000925565b60405180910390fd5b62000263600083836200034b60201b60201c565b806003600082825462000277919062000976565b9250508190555080600160008473ffffffffffffffffffffffffffffffffffffffff1673ffffffffffffffffffffffffffffffffffffffff168152602001908152602001600020600082825401925050819055508173ffffffffffffffffffffffffffffffffffffffff16600073ffffffffffffffffffffffffffffffffffffffff167fddf252ad1be2c89b69c2b068fc378daa952ba7f163c4a11628f55a4df523b3ef836040516200032b9190620009c2565b60405180910390a362000347600083836200049160201b60201c565b5050565b60006200036d82600654620003619190620009df565b6200049660201b60201c565b9050600073ffffffffffffffffffffffffffffffffffffffff168473ffffffffffffffffffffffffffffffffffffffff1614620003fd5780600760008673ffffffffffffffffffffffffffffffffffffffff1673ffffffffffffffffffffffffffffffffffffffff1681526020019081526020016000206000828254620003f5919062000a34565b925050819055505b600073ffffffffffffffffffffffffffffffffffffffff168373ffffffffffffffffffffffffffffffffffffffff16146200048b5780600760008673ffffffffffffffffffffffffffffffffffffffff1673ffffffffffffffffffffffffffffffffffffffff168152602001908152602001600020600082825462000483919062000a7f565b925050819055505b50505050565b505050565b60007f7fffffffffffffffffffffffffffffffffffffffffffffffffffffffffffffff821115620004f3576040517fb4120f1400000000000000000000000000000000000000000000000000000000815260040160405180910390fd5b819050919050565b600080fd5b6000819050919050565b620005158162000500565b81146200052157600080fd5b50565b60008151905062000535816200050a565b92915050565b600060208284031215620005545762000553620004fb565b5b6000620005648482850162000524565b91505092915050565b600081519050919050565b7f4e487b7100000000000000000000000000000000000000000000000000000000600052604160045260246000fd5b7f4e487b7100000000000000000000000000000000000000000000000000000000600052602260045260246000fd5b60006002820490506001821680620005ef57607f821691505b602082108103620006055762000604620005a7565b5b50919050565b60008190508160005260206000209050919050565b60006020601f8301049050919050565b600082821b905092915050565b6000600883026200066f7fffffffffffffffffffffffffffffffffffffffffffffffffffffffffffffffff8262000630565b6200067b868362000630565b95508019841693508086168417925050509392505050565b6000819050919050565b6000620006be620006b8620006b28462000500565b62000693565b62000500565b9050919050565b6000819050919050565b620006da836200069d565b620006f2620006e982620006c5565b8484546200063d565b825550505050565b600090565b62000709620006fa565b62000716818484620006cf565b505050565b5b818110156200073e5762000732600082620006ff565b6001810190506200071c565b5050565b601f8211156200078d5762000757816200060b565b620007628462000620565b8101602085101562000772578190505b6200078a620007818562000620565b8301826200071b565b50505b505050565b600082821c905092915050565b6000620007b26000198460080262000792565b1980831691505092915050565b6000620007cd83836200079f565b9150826002028217905092915050565b620007e8826200056d565b67ffffffffffffffff81111562000804576200080362000578565b5b620008108254620005d6565b6200081d82828562000742565b600060209050601f83116001811462000855576000841562000840578287015190505b6200084c8582620007bf565b865550620008bc565b601f19841662000865866200060b565b60005b828110156200088f5784890151825560018201915060208501945060208101905062000868565b86831015620008af5784890151620008ab601f8916826200079f565b8355505b6001600288020188555050505b505050505050565b600082825260208201905092915050565b7f45524332303a206d696e7420746f20746865207a65726f206164647265737300600082015250565b60006200090d601f83620008c4565b91506200091a82620008d5565b602082019050919050565b600060208201905081810360008301526200094081620008fe565b9050919050565b7f4e487b7100000000000000000000000000000000000000000000000000000000600052601160045260246000fd5b6000620009838262000500565b9150620009908362000500565b9250828201905080821115620009ab57620009aa62000947565b5b92915050565b620009bc8162000500565b82525050565b6000602082019050620009d96000830184620009b1565b92915050565b6000620009ec8262000500565b9150620009f98362000500565b925082820262000a098162000500565b9150828204841483151762000a235762000a2262000947565b5b5092915050565b6000819050919050565b600062000a418262000a2a565b915062000a4e8362000a2a565b92508282019050828112156000831216838212600084121516171562000a795762000a7862000947565b5b92915050565b600062000a8c8262000a2a565b915062000a998362000a2a565b925082820390508181126000841216828213600085121516171562000ac35762000ac262000947565b5b92915050565b612f168062000ad96000396000f3fe6080604052600436106101855760003560e01c8063715018a6116100d1578063a457c2d71161008a578063d63a4d5c11610064578063d63a4d5c14610763578063dd62ed3e146107a0578063e0880b56146107dd578063f2fde38b1461081b576102eb565b8063a457c2d7146106ac578063a9059cbb146106e9578063ac9650d814610726576102eb565b8063715018a61461059c57806379cc6790146105b35780637e1c4273146105dc5780638da5cb5b1461061957806395d89b411461064457806397a067241461066f576102eb565b806327ce01471161013e5780633a7960e0116101185780633a7960e0146104ce57806342966c68146104f95780635247ab051461052257806370a082311461055f576102eb565b806327ce014714610428578063313ce567146104665780633950935114610491576102eb565b80630396933a146102f057806306fdde031461032d578063095ea7b31461035857806318160ddd1461039557806319123c1f146103c057806323b872dd146103eb576102eb565b366102eb57600073ffffffffffffffffffffffffffffffffffffffff166101aa610844565b73ffffffffffffffffffffffffffffffffffffffff1614610209576101cd610844565b6040517f5b40d93f0000000000000000000000000000000000000000000000000000000081526004016102009190611cdc565b60405180910390fd5b6000349050600061021861086d565b905060008103610254576040517fdec05e7e00000000000000000000000000000000000000000000000000000000815260040160405180910390fd5b80700100000000000000000000000000000000836102729190611d30565b61027c9190611da1565b6006600082825461028d9190611dd2565b9250508190555061029c610877565b73ffffffffffffffffffffffffffffffffffffffff167fe5ba7d8b3902741267e9eb5f03b42f5f4f67aeef15cd66d31ecf1d574975b277836040516102e19190611e15565b60405180910390a2005b600080fd5b3480156102fc57600080fd5b5061031760048036038101906103129190611e66565b61087f565b6040516103249190611e15565b60405180910390f35b34801561033957600080fd5b50610342610897565b60405161034f9190611f23565b60405180910390f35b34801561036457600080fd5b5061037f600480360381019061037a9190611f71565b610929565b60405161038c9190611fcc565b60405180910390f35b3480156103a157600080fd5b506103aa61086d565b6040516103b79190611e15565b60405180910390f35b3480156103cc57600080fd5b506103d561094c565b6040516103e29190611e15565b60405180910390f35b3480156103f757600080fd5b50610412600480360381019061040d9190611fe7565b610961565b60405161041f9190611fcc565b60405180910390f35b34801561043457600080fd5b5061044f600480360381019061044a9190611e66565b610990565b60405161045d92919061203a565b60405180910390f35b34801561047257600080fd5b5061047b6109f0565b604051610488919061207f565b60405180910390f35b34801561049d57600080fd5b506104b860048036038101906104b39190611f71565b6109f9565b6040516104c59190611fcc565b60405180910390f35b3480156104da57600080fd5b506104e3610a30565b6040516104f09190611e15565b60405180910390f35b34801561050557600080fd5b50610520600480360381019061051b919061209a565b610a36565b005b34801561052e57600080fd5b5061054960048036038101906105449190612105565b610a4a565b6040516105569190611e15565b60405180910390f35b34801561056b57600080fd5b5061058660048036038101906105819190611e66565b610b70565b6040516105939190611e15565b60405180910390f35b3480156105a857600080fd5b506105b1610bb9565b005b3480156105bf57600080fd5b506105da60048036038101906105d59190611f71565b610bcd565b005b3480156105e857600080fd5b5061060360048036038101906105fe9190611e66565b610bed565b6040516106109190611e15565b60405180910390f35b34801561062557600080fd5b5061062e610844565b60405161063b9190611cdc565b60405180910390f35b34801561065057600080fd5b50610659610c9a565b6040516106669190611f23565b60405180910390f35b34801561067b57600080fd5b5061069660048036038101906106919190611e66565b610d2c565b6040516106a3919061215e565b60405180910390f35b3480156106b857600080fd5b506106d360048036038101906106ce9190611f71565b610d44565b6040516106e09190611fcc565b60405180910390f35b3480156106f557600080fd5b50610710600480360381019061070b9190611f71565b610dbb565b60405161071d9190611fcc565b60405180910390f35b34801561073257600080fd5b5061074d600480360381019061074891906121de565b610dde565b60405161075a9190612342565b60405180910390f35b34801561076f57600080fd5b5061078a60048036038101906107859190612364565b610eea565b6040516107979190611e15565b60405180910390f35b3480156107ac57600080fd5b506107c760048036038101906107c291906123a4565b610f17565b6040516107d49190611e15565b60405180910390f35b3480156107e957600080fd5b5061080460048036038101906107ff9190612410565b610f9e565b60405161081292919061203a565b60405180910390f35b34801561082757600080fd5b50610842600480360381019061083d9190611e66565b61100b565b005b60008060009054906101000a900473ffffffffffffffffffffffffffffffffffffffff16905090565b6000600354905090565b600033905090565b60086020528060005260406000206000915090505481565b6060600480546108a690612492565b80601f01602080910402602001604051908101604052809291908181526020018280546108d290612492565b801561091f5780601f106108f45761010080835404028352916020019161091f565b820191906000526020600020905b81548152906001019060200180831161090257829003601f168201915b5050505050905090565b600080610934610877565b905061094181858561108e565b600191505092915050565b70010000000000000000000000000000000081565b60008061096c610877565b9050610979858285611257565b6109848585856112e3565b60019150509392505050565b6000806109e76006546109a285610b70565b600760008773ffffffffffffffffffffffffffffffffffffffff1673ffffffffffffffffffffffffffffffffffffffff16815260200190815260200160002054610f9e565b91509150915091565b60006012905090565b600080610a04610877565b9050610a25818585610a168589610f17565b610a209190611dd2565b61108e565b600191505092915050565b60065481565b610a47610a41610877565b8261155c565b50565b600080610a55610877565b90506000610a6b84610a6684610bed565b610eea565b905060008103610a8057600092505050610b6a565b80600860008473ffffffffffffffffffffffffffffffffffffffff1673ffffffffffffffffffffffffffffffffffffffff1681526020019081526020016000206000828254610acf9190611dd2565b92505081905550610aff818673ffffffffffffffffffffffffffffffffffffffff1661172b90919063ffffffff16565b8473ffffffffffffffffffffffffffffffffffffffff168273ffffffffffffffffffffffffffffffffffffffff167f789b051f922a2c31369bf315f70ac999ae79364971fbc9a8f094bac1e2ffa8af83604051610b5c9190611e15565b60405180910390a380925050505b92915050565b6000600160008373ffffffffffffffffffffffffffffffffffffffff1673ffffffffffffffffffffffffffffffffffffffff168152602001908152602001600020549050919050565b610bc161181f565b610bcb600061189d565b565b610bdf82610bd9610877565b83611257565b610be9828261155c565b5050565b600080610c44600654610bff85610b70565b600760008773ffffffffffffffffffffffffffffffffffffffff1673ffffffffffffffffffffffffffffffffffffffff16815260200190815260200160002054610f9e565b509050600860008473ffffffffffffffffffffffffffffffffffffffff1673ffffffffffffffffffffffffffffffffffffffff1681526020019081526020016000205481610c9291906124c3565b915050919050565b606060058054610ca990612492565b80601f0160208091040260200160405190810160405280929190818152602001828054610cd590612492565b8015610d225780601f10610cf757610100808354040283529160200191610d22565b820191906000526020600020905b815481529060010190602001808311610d0557829003601f168201915b5050505050905090565b60076020528060005260406000206000915090505481565b600080610d4f610877565b90506000610d5d8286610f17565b905083811015610da2576040517f08c379a0000000000000000000000000000000000000000000000000000000008152600401610d9990612569565b60405180910390fd5b610daf828686840361108e565b60019250505092915050565b600080610dc6610877565b9050610dd38185856112e3565b600191505092915050565b60608282905067ffffffffffffffff811115610dfd57610dfc612589565b5b604051908082528060200260200182016040528015610e3057816020015b6060815260200190600190039081610e1b5790505b50905060005b83839050811015610ee357610eb230858584818110610e5857610e576125b8565b5b9050602002810190610e6a91906125f6565b8080601f016020809104026020016040519081016040528093929190818152602001838380828437600081840152601f19601f82011690508083019250505050505050611961565b828281518110610ec557610ec46125b8565b5b60200260200101819052508080610edb90612659565b915050610e36565b5092915050565b600080828410610efa5782610efc565b835b905060008114610f0c5780610f0e565b825b91505092915050565b6000600260008473ffffffffffffffffffffffffffffffffffffffff1673ffffffffffffffffffffffffffffffffffffffff16815260200190815260200160002060008373ffffffffffffffffffffffffffffffffffffffff1673ffffffffffffffffffffffffffffffffffffffff16815260200190815260200160002054905092915050565b600080600083610fb88688610fb39190611d30565b61198e565b610fc291906126a1565b905070010000000000000000000000000000000081610fe19190611da1565b70010000000000000000000000000000000082610ffe91906126e5565b9250925050935093915050565b61101361181f565b600073ffffffffffffffffffffffffffffffffffffffff168173ffffffffffffffffffffffffffffffffffffffff1603611082576040517f08c379a000000000000000000000000000000000000000000000000000000000815260040161107990612788565b60405180910390fd5b61108b8161189d565b50565b600073ffffffffffffffffffffffffffffffffffffffff168373ffffffffffffffffffffffffffffffffffffffff16036110fd576040517f08c379a00000000000000000000000000000000000000000000000000000000081526004016110f49061281a565b60405180910390fd5b600073ffffffffffffffffffffffffffffffffffffffff168273ffffffffffffffffffffffffffffffffffffffff160361116c576040517f08c379a0000000000000000000000000000000000000000000000000000000008152600401611163906128ac565b60405180910390fd5b80600260008573ffffffffffffffffffffffffffffffffffffffff1673ffffffffffffffffffffffffffffffffffffffff16815260200190815260200160002060008473ffffffffffffffffffffffffffffffffffffffff1673ffffffffffffffffffffffffffffffffffffffff168152602001908152602001600020819055508173ffffffffffffffffffffffffffffffffffffffff168373ffffffffffffffffffffffffffffffffffffffff167f8c5be1e5ebec7d5bd14f71427d1e84f3dd0314c0f7b2291e5b200ac8c7c3b9258360405161124a9190611e15565b60405180910390a3505050565b60006112638484610f17565b90507fffffffffffffffffffffffffffffffffffffffffffffffffffffffffffffffff81146112dd57818110156112cf576040517f08c379a00000000000000000000000000000000000000000000000000000000081526004016112c690612918565b60405180910390fd5b6112dc848484840361108e565b5b50505050565b600073ffffffffffffffffffffffffffffffffffffffff168373ffffffffffffffffffffffffffffffffffffffff1603611352576040517f08c379a0000000000000000000000000000000000000000000000000000000008152600401611349906129aa565b60405180910390fd5b600073ffffffffffffffffffffffffffffffffffffffff168273ffffffffffffffffffffffffffffffffffffffff16036113c1576040517f08c379a00000000000000000000000000000000000000000000000000000000081526004016113b890612a3c565b60405180910390fd5b6113cc8383836119f2565b6000600160008573ffffffffffffffffffffffffffffffffffffffff1673ffffffffffffffffffffffffffffffffffffffff16815260200190815260200160002054905081811015611453576040517f08c379a000000000000000000000000000000000000000000000000000000000815260040161144a90612ace565b60405180910390fd5b818103600160008673ffffffffffffffffffffffffffffffffffffffff1673ffffffffffffffffffffffffffffffffffffffff1681526020019081526020016000208190555081600160008573ffffffffffffffffffffffffffffffffffffffff1673ffffffffffffffffffffffffffffffffffffffff168152602001908152602001600020600082825401925050819055508273ffffffffffffffffffffffffffffffffffffffff168473ffffffffffffffffffffffffffffffffffffffff167fddf252ad1be2c89b69c2b068fc378daa952ba7f163c4a11628f55a4df523b3ef846040516115439190611e15565b60405180910390a3611556848484611b28565b50505050565b600073ffffffffffffffffffffffffffffffffffffffff168273ffffffffffffffffffffffffffffffffffffffff16036115cb576040517f08c379a00000000000000000000000000000000000000000000000000000000081526004016115c290612b60565b60405180910390fd5b6115d7826000836119f2565b6000600160008473ffffffffffffffffffffffffffffffffffffffff1673ffffffffffffffffffffffffffffffffffffffff1681526020019081526020016000205490508181101561165e576040517f08c379a000000000000000000000000000000000000000000000000000000000815260040161165590612bf2565b60405180910390fd5b818103600160008573ffffffffffffffffffffffffffffffffffffffff1673ffffffffffffffffffffffffffffffffffffffff1681526020019081526020016000208190555081600360008282540392505081905550600073ffffffffffffffffffffffffffffffffffffffff168373ffffffffffffffffffffffffffffffffffffffff167fddf252ad1be2c89b69c2b068fc378daa952ba7f163c4a11628f55a4df523b3ef846040516117129190611e15565b60405180910390a361172683600084611b28565b505050565b8047101561176e576040517f08c379a000000000000000000000000000000000000000000000000000000000815260040161176590612c5e565b60405180910390fd5b60008273ffffffffffffffffffffffffffffffffffffffff168260405161179490612caf565b60006040518083038185875af1925050503d80600081146117d1576040519150601f19603f3d011682016040523d82523d6000602084013e6117d6565b606091505b505090508061181a576040517f08c379a000000000000000000000000000000000000000000000000000000000815260040161181190612d36565b60405180910390fd5b505050565b611827610877565b73ffffffffffffffffffffffffffffffffffffffff16611845610844565b73ffffffffffffffffffffffffffffffffffffffff161461189b576040517f08c379a000000000000000000000000000000000000000000000000000000000815260040161189290612da2565b60405180910390fd5b565b60008060009054906101000a900473ffffffffffffffffffffffffffffffffffffffff169050816000806101000a81548173ffffffffffffffffffffffffffffffffffffffff021916908373ffffffffffffffffffffffffffffffffffffffff1602179055508173ffffffffffffffffffffffffffffffffffffffff168173ffffffffffffffffffffffffffffffffffffffff167f8be0079c531659141344cd1fd0a4f28419497f9722a3daafe3b4186f6b6457e060405160405180910390a35050565b60606119868383604051806060016040528060278152602001612eba60279139611b2d565b905092915050565b60007f7fffffffffffffffffffffffffffffffffffffffffffffffffffffffffffffff8211156119ea576040517fb4120f1400000000000000000000000000000000000000000000000000000000815260040160405180910390fd5b819050919050565b6000611a0a82600654611a059190611d30565b61198e565b9050600073ffffffffffffffffffffffffffffffffffffffff168473ffffffffffffffffffffffffffffffffffffffff1614611a975780600760008673ffffffffffffffffffffffffffffffffffffffff1673ffffffffffffffffffffffffffffffffffffffff1681526020019081526020016000206000828254611a8f91906126a1565b925050819055505b600073ffffffffffffffffffffffffffffffffffffffff168373ffffffffffffffffffffffffffffffffffffffff1614611b225780600760008673ffffffffffffffffffffffffffffffffffffffff1673ffffffffffffffffffffffffffffffffffffffff1681526020019081526020016000206000828254611b1a9190612dc2565b925050819055505b50505050565b505050565b60606000808573ffffffffffffffffffffffffffffffffffffffff1685604051611b579190612e36565b600060405180830381855af49150503d8060008114611b92576040519150601f19603f3d011682016040523d82523d6000602084013e611b97565b606091505b5091509150611ba886838387611bb3565b925050509392505050565b60608315611c15576000835103611c0d57611bcd85611c28565b611c0c576040517f08c379a0000000000000000000000000000000000000000000000000000000008152600401611c0390612e99565b60405180910390fd5b5b829050611c20565b611c1f8383611c4b565b5b949350505050565b6000808273ffffffffffffffffffffffffffffffffffffffff163b119050919050565b600082511115611c5e5781518083602001fd5b806040517f08c379a0000000000000000000000000000000000000000000000000000000008152600401611c929190611f23565b60405180910390fd5b600073ffffffffffffffffffffffffffffffffffffffff82169050919050565b6000611cc682611c9b565b9050919050565b611cd681611cbb565b82525050565b6000602082019050611cf16000830184611ccd565b92915050565b6000819050919050565b7f4e487b7100000000000000000000000000000000000000000000000000000000600052601160045260246000fd5b6000611d3b82611cf7565b9150611d4683611cf7565b9250828202611d5481611cf7565b91508282048414831517611d6b57611d6a611d01565b5b5092915050565b7f4e487b7100000000000000000000000000000000000000000000000000000000600052601260045260246000fd5b6000611dac82611cf7565b9150611db783611cf7565b925082611dc757611dc6611d72565b5b828204905092915050565b6000611ddd82611cf7565b9150611de883611cf7565b9250828201905080821115611e0057611dff611d01565b5b92915050565b611e0f81611cf7565b82525050565b6000602082019050611e2a6000830184611e06565b92915050565b600080fd5b600080fd5b611e4381611cbb565b8114611e4e57600080fd5b50565b600081359050611e6081611e3a565b92915050565b600060208284031215611e7c57611e7b611e30565b5b6000611e8a84828501611e51565b91505092915050565b600081519050919050565b600082825260208201905092915050565b60005b83811015611ecd578082015181840152602081019050611eb2565b60008484015250505050565b6000601f19601f8301169050919050565b6000611ef582611e93565b611eff8185611e9e565b9350611f0f818560208601611eaf565b611f1881611ed9565b840191505092915050565b60006020820190508181036000830152611f3d8184611eea565b905092915050565b611f4e81611cf7565b8114611f5957600080fd5b50565b600081359050611f6b81611f45565b92915050565b60008060408385031215611f8857611f87611e30565b5b6000611f9685828601611e51565b9250506020611fa785828601611f5c565b9150509250929050565b60008115159050919050565b611fc681611fb1565b82525050565b6000602082019050611fe16000830184611fbd565b92915050565b60008060006060848603121561200057611fff611e30565b5b600061200e86828701611e51565b935050602061201f86828701611e51565b925050604061203086828701611f5c565b9150509250925092565b600060408201905061204f6000830185611e06565b61205c6020830184611e06565b9392505050565b600060ff82169050919050565b61207981612063565b82525050565b60006020820190506120946000830184612070565b92915050565b6000602082840312156120b0576120af611e30565b5b60006120be84828501611f5c565b91505092915050565b60006120d282611c9b565b9050919050565b6120e2816120c7565b81146120ed57600080fd5b50565b6000813590506120ff816120d9565b92915050565b6000806040838503121561211c5761211b611e30565b5b600061212a858286016120f0565b925050602061213b85828601611f5c565b9150509250929050565b6000819050919050565b61215881612145565b82525050565b6000602082019050612173600083018461214f565b92915050565b600080fd5b600080fd5b600080fd5b60008083601f84011261219e5761219d612179565b5b8235905067ffffffffffffffff8111156121bb576121ba61217e565b5b6020830191508360208202830111156121d7576121d6612183565b5b9250929050565b600080602083850312156121f5576121f4611e30565b5b600083013567ffffffffffffffff81111561221357612212611e35565b5b61221f85828601612188565b92509250509250929050565b600081519050919050565b600082825260208201905092915050565b6000819050602082019050919050565b600081519050919050565b600082825260208201905092915050565b600061227e82612257565b6122888185612262565b9350612298818560208601611eaf565b6122a181611ed9565b840191505092915050565b60006122b88383612273565b905092915050565b6000602082019050919050565b60006122d88261222b565b6122e28185612236565b9350836020820285016122f485612247565b8060005b85811015612330578484038952815161231185826122ac565b945061231c836122c0565b925060208a019950506001810190506122f8565b50829750879550505050505092915050565b6000602082019050818103600083015261235c81846122cd565b905092915050565b6000806040838503121561237b5761237a611e30565b5b600061238985828601611f5c565b925050602061239a85828601611f5c565b9150509250929050565b600080604083850312156123bb576123ba611e30565b5b60006123c985828601611e51565b92505060206123da85828601611e51565b9150509250929050565b6123ed81612145565b81146123f857600080fd5b50565b60008135905061240a816123e4565b92915050565b60008060006060848603121561242957612428611e30565b5b600061243786828701611f5c565b935050602061244886828701611f5c565b9250506040612459868287016123fb565b9150509250925092565b7f4e487b7100000000000000000000000000000000000000000000000000000000600052602260045260246000fd5b600060028204905060018216806124aa57607f821691505b6020821081036124bd576124bc612463565b5b50919050565b60006124ce82611cf7565b91506124d983611cf7565b92508282039050818111156124f1576124f0611d01565b5b92915050565b7f45524332303a2064656372656173656420616c6c6f77616e63652062656c6f7760008201527f207a65726f000000000000000000000000000000000000000000000000000000602082015250565b6000612553602583611e9e565b915061255e826124f7565b604082019050919050565b6000602082019050818103600083015261258281612546565b9050919050565b7f4e487b7100000000000000000000000000000000000000000000000000000000600052604160045260246000fd5b7f4e487b7100000000000000000000000000000000000000000000000000000000600052603260045260246000fd5b600080fd5b600080fd5b600080fd5b60008083356001602003843603038112612613576126126125e7565b5b80840192508235915067ffffffffffffffff821115612635576126346125ec565b5b602083019250600182023603831315612651576126506125f1565b5b509250929050565b600061266482611cf7565b91507fffffffffffffffffffffffffffffffffffffffffffffffffffffffffffffffff820361269657612695611d01565b5b600182019050919050565b60006126ac82612145565b91506126b783612145565b9250828201905082811215600083121683821260008412151617156126df576126de611d01565b5b92915050565b60006126f082611cf7565b91506126fb83611cf7565b92508261270b5761270a611d72565b5b828206905092915050565b7f4f776e61626c653a206e6577206f776e657220697320746865207a65726f206160008201527f6464726573730000000000000000000000000000000000000000000000000000602082015250565b6000612772602683611e9e565b915061277d82612716565b604082019050919050565b600060208201905081810360008301526127a181612765565b9050919050565b7f45524332303a20617070726f76652066726f6d20746865207a65726f2061646460008201527f7265737300000000000000000000000000000000000000000000000000000000602082015250565b6000612804602483611e9e565b915061280f826127a8565b604082019050919050565b60006020820190508181036000830152612833816127f7565b9050919050565b7f45524332303a20617070726f766520746f20746865207a65726f20616464726560008201527f7373000000000000000000000000000000000000000000000000000000000000602082015250565b6000612896602283611e9e565b91506128a18261283a565b604082019050919050565b600060208201905081810360008301526128c581612889565b9050919050565b7f45524332303a20696e73756666696369656e7420616c6c6f77616e6365000000600082015250565b6000612902601d83611e9e565b915061290d826128cc565b602082019050919050565b60006020820190508181036000830152612931816128f5565b9050919050565b7f45524332303a207472616e736665722066726f6d20746865207a65726f20616460008201527f6472657373000000000000000000000000000000000000000000000000000000602082015250565b6000612994602583611e9e565b915061299f82612938565b604082019050919050565b600060208201905081810360008301526129c381612987565b9050919050565b7f45524332303a207472616e7366657220746f20746865207a65726f206164647260008201527f6573730000000000000000000000000000000000000000000000000000000000602082015250565b6000612a26602383611e9e565b9150612a31826129ca565b604082019050919050565b60006020820190508181036000830152612a5581612a19565b9050919050565b7f45524332303a207472616e7366657220616d6f756e742065786365656473206260008201527f616c616e63650000000000000000000000000000000000000000000000000000602082015250565b6000612ab8602683611e9e565b9150612ac382612a5c565b604082019050919050565b60006020820190508181036000830152612ae781612aab565b9050919050565b7f45524332303a206275726e2066726f6d20746865207a65726f2061646472657360008201527f7300000000000000000000000000000000000000000000000000000000000000602082015250565b6000612b4a602183611e9e565b9150612b5582612aee565b604082019050919050565b60006020820190508181036000830152612b7981612b3d565b9050919050565b7f45524332303a206275726e20616d6f756e7420657863656564732062616c616e60008201527f6365000000000000000000000000000000000000000000000000000000000000602082015250565b6000612bdc602283611e9e565b9150612be782612b80565b604082019050919050565b60006020820190508181036000830152612c0b81612bcf565b9050919050565b7f416464726573733a20696e73756666696369656e742062616c616e6365000000600082015250565b6000612c48601d83611e9e565b9150612c5382612c12565b602082019050919050565b60006020820190508181036000830152612c7781612c3b565b9050919050565b600081905092915050565b50565b6000612c99600083612c7e565b9150612ca482612c89565b600082019050919050565b6000612cba82612c8c565b9150819050919050565b7f416464726573733a20756e61626c6520746f2073656e642076616c75652c207260008201527f6563697069656e74206d61792068617665207265766572746564000000000000602082015250565b6000612d20603a83611e9e565b9150612d2b82612cc4565b604082019050919050565b60006020820190508181036000830152612d4f81612d13565b9050919050565b7f4f776e61626c653a2063616c6c6572206973206e6f7420746865206f776e6572600082015250565b6000612d8c602083611e9e565b9150612d9782612d56565b602082019050919050565b60006020820190508181036000830152612dbb81612d7f565b9050919050565b6000612dcd82612145565b9150612dd883612145565b9250828203905081811260008412168282136000851215161715612dff57612dfe611d01565b5b92915050565b6000612e1082612257565b612e1a8185612c7e565b9350612e2a818560208601611eaf565b80840191505092915050565b6000612e428284612e05565b915081905092915050565b7f416464726573733a2063616c6c20746f206e6f6e2d636f6e7472616374000000600082015250565b6000612e83601d83611e9e565b9150612e8e82612e4d565b602082019050919050565b60006020820190508181036000830152612eb281612e76565b905091905056fe416464726573733a206c6f772d6c6576656c2064656c65676174652063616c6c206661696c6564a2646970667358221220edfcdfe806b4f156dc982e03c4c17830584c20fe7693d4b794aeef22994d5a7f64736f6c63430008110033",
  "immutableReferences": {},
  "source": "// SPDX-License-Identifier: MIT\npragma solidity ^0.8.17;\n\nimport \"./openzepplin/contracts/token/ERC20/ERC20.sol\";\nimport \"./openzepplin/contracts/token/ERC20/extensions/ERC20Burnable.sol\";\nimport \"./openzepplin/contracts/utils/Address.sol\";\nimport \"./openzepplin/contracts/access/Ownable.sol\";\nimport \"./openzepplin/contracts/utils/Multicall.sol\";\nimport \"./interfaces/IInternetMoneySwapRouter.sol\";\nimport \"./Utils.sol\";\n\n/** \n* @title TIMEDividend a token to track ownership over dividend\n* dividend come in over time and their ownership amount may shift\n*/\ncontract TIMEDividend is Ownable, ERC20, ERC20Burnable, Utils, Multicall {\n    using Address for address payable;\n\n    /// @dev magnitude is a constant that converts amounts to scaling magnitudes\n    /// so that resolution for payouts is maintained\n    uint256 public constant magnitude = 2**128;\n    uint256 public magnifiedDividendPerShare;\n\n    mapping(address => int256) public magnifiedDividendCorrections;\n    mapping(address => uint256) public cumulativeDividendClaimed;\n\n    /// @dev This emits when PLS is distributed to token holders.\n    /// @param from The address which sends PLS to this contract.\n    /// @param weiAmount The amount of distributed PLS in wei.\n    event DistributeDividend(address indexed from, uint256 weiAmount);\n\n    /// @dev This emits when an address withdraws their dividend.\n    /// @param account The address which withdraws native token from this contract.\n    /// @param amount The amount of withdrawn native token.\n    event ClaimDividend(address indexed account, address indexed recipient, uint256 amount);\n\n    error HasAdmin(address owner);\n    error SupplyMissing();\n    error OutOfBounds();\n\n    /**\n    * @param supply the supply of the number of tokens to produce\n    */\n    constructor(uint256 supply)\n        ERC20(\"T.I.M.E. Dividend\", \"TIME\")\n        Ownable()\n        {\n            _mint(_msgSender(), supply);\n        }\n\n    /**\n    * @notice This payable function is used to receive amount which will be given to the token holders as dividend\n    * @notice This function can be run by anyone transferring the native currency into the contract.\n    * @dev This private function is used to distribute PLS dividend among the token holders\n    */\n    receive() external payable {\n        // this function can only be run after mint process is complete\n        // and ownership has been revoked\n        if (owner() != address(0)) {\n            revert HasAdmin(owner());\n        }\n        uint256 amount = msg.value;\n        uint256 supply = totalSupply();\n        if (supply == 0) {\n            revert SupplyMissing();\n        }\n        magnifiedDividendPerShare += ((amount * magnitude) / supply);\n        emit DistributeDividend(_msgSender(), amount);\n    }\n\n    /** converts a uint256 to int256 after checking bounds */\n    function toInt256(uint256 target) internal pure returns(int256) {\n        if (target > uint256(type(int256).max)) {\n            revert OutOfBounds();\n        }\n        return int256(target);\n    }\n\n    /** \n    * @dev This internal function is overriden from {ERC20} contract to handle mag corrections\n    * See {ERC20-_beforeTokenTransfer} for more details\n    * @notice updates magified dividend corrections as they are transfered between accounts\n    * @param from the address to send the tokens to\n    * @param to the address to send tokens to\n    * @param amount the count of tokensbeing sent\n    * 'notice this covers transfers, mints and burns\n    */\n    function _beforeTokenTransfer(\n            address from,\n            address to,\n            uint256 amount\n        ) internal override {\n        int256 correctionDelta = toInt256(magnifiedDividendPerShare * amount);\n        if (from != address(0)) {\n            magnifiedDividendCorrections[from] += correctionDelta;\n        }\n        if (to != address(0)) {\n            magnifiedDividendCorrections[from] -= correctionDelta;\n        }           \n    }\n\n    /**\n    * @notice This function is used to get total claimable dividend of `account`\n    * @param account Address to check for\n    * @return Total clamable dividend of `account`\n    */\n    function claimableDividendOf(address account) public view returns (uint256) {\n        (uint256 totalClaimable, ) = dividendFrom(\n            magnifiedDividendPerShare,\n            balanceOf(account),\n            magnifiedDividendCorrections[account]\n        );\n        return totalClaimable - cumulativeDividendClaimed[account];\n    }\n\n    /**\n    * @param account the account whose dividend should be checked\n    * @return accumulatedDividend the amount of dividend accumulated\n    */\n    function accumulativeDividendOf(address account) public view returns (uint256, uint256) {\n        return dividendFrom(\n        magnifiedDividendPerShare,\n        balanceOf(account),\n        magnifiedDividendCorrections[account]\n        );\n    }\n\n    /**\n    * computes the dividend that is owed given the dividend per share, token balance, and correction from transfers\n    * @param magDividendPerShare is the targeted magnitudeDividendPerShare, must be passed in since it is variable on the contract\n    * @param balance the token balance of the address in question\n    * @param correction the correction of the address in question which takes into account transfers over a given magnitude\n    * @notice the magnitude will almost never divide evenly into the correct\n    * product of the balance * dividend per share value, so the remainder is returned\n    * this is useful for anyone who wants to know if there is any token\n    * being left in the contract due to rounding errors\n    */\n    function dividendFrom(\n        uint256 magDividendPerShare,\n        uint256 balance,\n        int256 correction\n        ) public pure returns(uint256 claimableDividend, uint256 productRemainder) {\n            uint256 product = uint256(toInt256(magDividendPerShare * balance) + correction);\n            return (product / magnitude, product % magnitude);\n    }   \n\n    /**\n    * @dev This private function claims the dividend for `_msgSender()`\n    * @param recipient Account to receive dividend from account\n    * @param amount the amount to distribute - 0 is recognized as all\n    * @return claimed true if the claim is successful, false otherwise\n    * @notice if zero is passed for amount, all of the available tokens are released\n    * @notice the account distributing to must be payable\n    */\n    function claimDividend(\n        address payable recipient,\n        uint256 amount\n        ) public returns (uint256) {\n        address account = _msgSender();\n        uint256 claimable = clamp(amount, claimableDividendOf(account));\n        if (claimable == 0) {\n        // return if we can't claim anything\n        return 0;\n        }\n        cumulativeDividendClaimed[account] += claimable;\n        recipient.sendValue(claimable);\n        emit ClaimDividend(account, recipient, claimable);\n        return claimable;\n    }\n}\n",
  "sourcePath": "/home/jonbulmer/Documents/TimeDividendDapp/src/contracts/TIMEDividend.sol",
  "compiler": {
    "name": "solc",
    "version": "0.8.17+commit.8df45f5f.Emscripten.clang"
  },
  "schemaVersion": "3.4.14",
  "updatedAt": "2023-07-17T20:43:37.047Z",
  "networkType": "ethereum",
  "devdoc": {
    "events": {
      "ClaimDividend(address,address,uint256)": {
        "details": "This emits when an address withdraws their dividend.",
        "params": {
          "account": "The address which withdraws native token from this contract.",
          "amount": "The amount of withdrawn native token."
        }
      },
      "DistributeDividend(address,uint256)": {
        "details": "This emits when PLS is distributed to token holders.",
        "params": {
          "from": "The address which sends PLS to this contract.",
          "weiAmount": "The amount of distributed PLS in wei."
        }
      }
    },
    "kind": "dev",
    "methods": {
      "accumulativeDividendOf(address)": {
        "params": {
          "account": "the account whose dividend should be checked"
        },
        "returns": {
          "_0": "accumulatedDividend the amount of dividend accumulated"
        }
      },
      "allowance(address,address)": {
        "details": "See {IERC20-allowance}."
      },
      "approve(address,uint256)": {
        "details": "See {IERC20-approve}. NOTE: If `amount` is the maximum `uint256`, the allowance is not updated on `transferFrom`. This is semantically equivalent to an infinite approval. Requirements: - `spender` cannot be the zero address."
      },
      "balanceOf(address)": {
        "details": "See {IERC20-balanceOf}."
      },
      "burn(uint256)": {
        "details": "Destroys `amount` tokens from the caller. See {ERC20-_burn}."
      },
      "burnFrom(address,uint256)": {
        "details": "Destroys `amount` tokens from `account`, deducting from the caller's allowance. See {ERC20-_burn} and {ERC20-allowance}. Requirements: - the caller must have allowance for ``accounts``'s tokens of at least `amount`."
      },
      "claimDividend(address,uint256)": {
        "details": "This private function claims the dividend for `_msgSender()`",
        "params": {
          "amount": "the amount to distribute - 0 is recognized as all",
          "recipient": "Account to receive dividend from account"
        },
        "returns": {
          "_0": "claimed true if the claim is successful, false otherwise"
        }
      },
      "claimableDividendOf(address)": {
        "params": {
          "account": "Address to check for"
        },
        "returns": {
          "_0": "Total clamable dividend of `account`"
        }
      },
      "constructor": {
        "params": {
          "supply": "the supply of the number of tokens to produce"
        }
      },
      "decimals()": {
        "details": "Returns the number of decimals used to get its user representation. For example, if `decimals` equals `2`, a balance of `505` tokens should be displayed to a user as `5.05` (`505 / 10 ** 2`). Tokens usually opt for a value of 18, imitating the relationship between Ether and Wei. This is the value {ERC20} uses, unless this function is overridden; NOTE: This information is only used for _display_ purposes: it in no way affects any of the arithmetic of the contract, including {IERC20-balanceOf} and {IERC20-transfer}."
      },
      "decreaseAllowance(address,uint256)": {
        "details": "Atomically decreases the allowance granted to `spender` by the caller. This is an alternative to {approve} that can be used as a mitigation for problems described in {IERC20-approve}. Emits an {Approval} event indicating the updated allowance. Requirements: - `spender` cannot be the zero address. - `spender` must have allowance for the caller of at least `subtractedValue`."
      },
      "dividendFrom(uint256,uint256,int256)": {
        "params": {
          "balance": "the token balance of the address in question",
          "correction": "the correction of the address in question which takes into account transfers over a given magnitude",
          "magDividendPerShare": "is the targeted magnitudeDividendPerShare, must be passed in since it is variable on the contract"
        }
      },
      "increaseAllowance(address,uint256)": {
        "details": "Atomically increases the allowance granted to `spender` by the caller. This is an alternative to {approve} that can be used as a mitigation for problems described in {IERC20-approve}. Emits an {Approval} event indicating the updated allowance. Requirements: - `spender` cannot be the zero address."
      },
      "multicall(bytes[])": {
        "details": "Receives and executes a batch of function calls on this contract."
      },
      "name()": {
        "details": "Returns the name of the token."
      },
      "owner()": {
        "details": "Returns the address of the current owner."
      },
      "renounceOwnership()": {
        "details": "Leaves the contract without owner. It will not be possible to call `onlyOwner` functions anymore. Can only be called by the current owner. NOTE: Renouncing ownership will leave the contract without an owner, thereby removing any functionality that is only available to the owner."
      },
      "symbol()": {
        "details": "Returns the symbol of the token, usually a shorter version of the name."
      },
      "totalSupply()": {
        "details": "See {IERC20-totalSupply}."
      },
      "transfer(address,uint256)": {
        "details": "See {IERC20-traTIME - `to` cannot be the zero address. - the caller must have a balance of at least `amount`."
      },
      "transferFrom(address,address,uint256)": {
        "details": "See {IERC20-transferFrom}. Emits an {Approval} event indicating the updated allowance. This is not required by the EIP. See the note at the beginning of {ERC20}. NOTE: Does not update the allowance if the current allowance is the maximum `uint256`. Requirements: - `from` and `to` cannot be the zero address. - `from` must have a balance of at least `amount`. - the caller must have allowance for ``from``'s tokens of at least `amount`."
      },
      "transferOwnership(address)": {
        "details": "Transfers ownership of the contract to a new account (`newOwner`). Can only be called by the current owner."
      }
    },
    "stateVariables": {
      "magnitude": {
        "details": "magnitude is a constant that converts amounts to scaling magnitudes so that resolution for payouts is maintained"
      }
    },
    "title": "TIMEDividend a token to track ownership over dividend dividend come in over time and their ownership amount may shift",
    "version": 1
  },
  "userdoc": {
    "kind": "user",
    "methods": {
      "claimDividend(address,uint256)": {
        "notice": "if zero is passed for amount, all of the available tokens are releasedthe account distributing to must be payable"
      },
      "claimableDividendOf(address)": {
        "notice": "This function is used to get total claimable dividend of `account`"
      },
      "clamp(uint256,uint256)": {
        "notice": "clamp the amount provided to a maximum, defaulting to provided maximum if 0 provided "
      },
      "dividendFrom(uint256,uint256,int256)": {
        "notice": "computes the dividend that is owed given the dividend per share, token balance, and correction from transfersthe magnitude will almost never divide evenly into the correct product of the balance * dividend per share value, so the remainder is returned this is useful for anyone who wants to know if there is any token being left in the contract due to rounding errors"
      }
    },
    "version": 1
  }
}